:100000006AC4000085C4000083C4000081C40000ED
:100010000C94DE327DC400007BC4000079C4000073
:1000200077C4000075C400000C941B310C9403329B
:100030000C94D0306DC400006BC4000069C4000093
:1000400067C4000065C4000063C4000061C4000010
:100050005FC400000C94F7305BC4000059C400007A
:1000600057C4000055C4000053C4000051C4000030
:100070004FC400004DC400004BC4000049C4000040
:1000800047C4000045C4000043C4000041C4000050
:100090003FC400003DC400003BC4000039C4000060
:1000A00037C4000035C4000033C400000501090254
:1000B000A10185020901A1000509190129081500FE
:1000C0002501950875018102050109300931158165
:1000D000257F95027508810609381581257F9501D0
:1000E00075088106050C0A38021581257F95017572
:1000F000088106C0C005010980A101850319012AF4
:10010000B700150126B700950175108100C0050CD8
:100110000901A101850419012AA002150126A002E6
:10012000950175108100C005010906A1018506052C
:100130000719E029E71500250195087501810205D9
:1001400007190029EF1500250195F07501810205B9
:10015000081901290595057501910295017503910D
:1001600001C00660FF0961A1010962150026FF00B8
:100170009520750881020963150026FF00952075FA
:10018000089102C005010906A101050719E029E748
:1001900015002501950875018102950175088101F9
:1001A0000507190029FF150026FF0095067508812F
:1001B000000508190129051500250195057501910E
:1001C00002950175039101C009025B00030100A0C3
:1001D000FA090400000103010100092111010001D5
:1001E00022440007058103080001090401000203FD
:1001F00000000009211101000122220007058203ED
:100200002000010705030320000109040200010387
:1002100000000009211101000122B6000705840336
:1002200020000112010002000000081120016300FB
:1002300001010203011C037600690061006C003AB1
:100240000066003600340063003200620033006351
:100250000000000C037900750077006F006C00004F
:10026000001203790075006200750072006F006C67
:10027000006C0000000403090400000000000000FE
:10028000000000000000000000000000000000006E
:10029000000000000000000000000000007E0F00D1
:1002A000D4FFFFFFC700000078000000000000003E
:1002B000002A2B28000000000000000000000000C1
:1002C0000000000029000000002C1E342021222400
:1002D000342627252E362D3738271E1F202122238E
:1002E0002425263333362E37381F04050607080920
:1002F0000A0B0C0D0E0F10111213141516171819E6
:100300001A1B1C1D2F3130232D3504050607080943
:100310000A0B0C0D0E0F10111213141516171819C5
:100320001A1B1C1D2F3130354C290035001E001FB3
:100330000020002100220023004C002B0014001A92
:10034000000800150017001C0028003900040016E2
:1003500000070009000A000B002152E10064001DA3
:10036000001B000600190005002252E0000000E317
:10037000006500E2002C002A002A0032002E002D29
:10038000002700260025002400310030002F001334
:100390000012000C0018001C00280000003400337C
:1003A000000F000E000D000B002152E50038003751
:1003B0000036001000110005004F0052005100509F
:1003C00000E400E6002C002800290035003A003B3C
:1003D000003C003D003E003F000000010000000026
:1003E0000000000000000000000000E0000000002D
:1003F00000000000000000000001000100000000FB
:1004000000000000000000000000000100000001EA
:100410000001000100010001004C004900450044BA
:10042000004300420041004000000000005200482C
:10043000004700460000000000000000004F005090
:10044000004B004A00000000000100010051004E76
:10045000004D000000000000004D004E004B004A1F
:100460000001000100010001000100010001000184
:100470000001000100010001000100010001000174
:100480000001000100010001000100010001000164
:100490000001000100010001000000010001000155
:1004A0000001000100010001000100010000000145
:1004B0000001000100010001000100010001000134
:1004C00000010001000100010000000000D900004F
:1004D00000000000000000000000000000DC00DB65
:1004E0000000000000017C007C00000100DA000038
:1004F000000000000000000000D000CD00CE00CFC2
:1005000000D300D200D100000001000100FB03DD98
:10051000152D18000002000200F703DD152D18004C
:100520000003000100FC03DD152D1800000400028B
:1005300000E103DD152D188D0805000100FD03DD28
:10054000152D18000006000200E303DD152D18002C
:100550000007000200F903DD152D18000009000254
:1005600000E503DD152D1896080A000200E703DDFB
:10057000152D1896080B000200E903DD152D1896BD
:10058000080C000200EB03DD152D1896080D000283
:1005900000ED03DD152D1896080E000200EF03DDB7
:1005A000152D1896080F000200F103DD152D189681
:1005B0000810000200F303DD152D18960811000243
:1005C00000F503DD152D18960812000200FF03DD6B
:1005D000152D180000130002000104DD152D180070
:1005E00000140001000304DD152D180000150000A3
:1005F000000000C308EC10000016000100FE03F428
:10060000154318000017000101FE03F415431800FC
:100610000018000102FE03F415431800001900023F
:10062000000504DD152D1800001A000103FE03F477
:1006300015431800001B0002000704DD152D1800EB
:1006400000FD377A585A000004E6D6B4460200216D
:100650000116000000742FE5A3E0052301D15D0021
:100660003D8889C65436C3174FE4F372966729D67E
:1006700012F5ED6C1DB62AD3E36CDCD36B253BC1C0
:1006800035D5FCA32A690BEB18AF07FABD6D386CA2
:1006900003BDA4EE83969A642AD6406CCBEAC5B714
:1006A00099A737C4799F355342A4F2870B809139BB
:1006B0009A2D8927CB6FB4F639CFAE1206D8B6047F
:1006C0006DEB87CE859DC4F6C34CC1ABFFE5EF262D
:1006D000A9FBAC8FB6A2F65D04A8CD6597A2BDC1FB
:1006E000972E4CF0603A43F1087B3813D385EAFE2D
:1006F00092FBFE88136FCD5DB0EC2B960A02770D4E
:10070000C0F945AC073DAA8F2C33FB38220940D4F1
:10071000C213886D11948648663CA567C2EC9B6D38
:10072000286C8E333FDE4B6F3777675AB493EA1CE1
:100730002557AF4BC144605E60E12D162940FED5C0
:1007400019F3D36DD7CD21FB2C51F1F89812DD1D93
:10075000FAEB1EF0335820B10ACD1ACC5C422E0FB2
:10076000EC758F2C14E2D90391DF9248978683149D
:100770009780DF47EFAA2FBD1E8005B8A9EAE77D65
:100780003E3B8908D0E1B79DE0FC8E91B8086784B4
:100790006FC96BF9DEC70B89F5C14E4B4224702936
:1007A00081A00600B5396F50DE301C1D90098EA364
:1007B0004DDFF3D939D151094C7631E78ACB7ACE66
:1007C000F93B4F6625076198858F0E7417389D9DFC
:1007D000BCD93EF5607D4F427DEE762372CD4B183D
:1007E0004AD04FDE83953648B57A0E3A8B9DF73E58
:1007F0001C24CB065737ED24074875032324A20594
:100800001DC5C74F8614420E8A1F826ED46F691AA7
:100810007CE2DA7B8034BC0DF00748E886BF073203
:100820005AC56C97ED29100A14541CEF7513BF219B
:10083000D10000000081C03B09B97CDC060001ED5D
:1008400003A40A0000D5ADB1E1B1C467FB0200000A
:10085000000004595A4C4C4C4C4C4C4C4C4C4C4C9D
:100860004C4C4C4C4C4C4C4C4C4C4C4C4C4C4C4CC8
:100870004C4C4C4C4C4C4C004C4C4C4C4C525252F2
:10088000525252525252525252525252525200529A
:100890005252525252525252525252525252525238
:1008A0005252525252504F52514A4D4B4E2A4C2F97
:1008B00030B6B7ABACBBBCA9AABDBECFD0CDCEDBEA
:1008C000DCD9DA0D0E0B0F1A0508050905071811FA
:1008D000130408120C0011241FBECFEFDAE0DEBFB4
:1008E000CDBF11E0A0E0B1E0EEEBFAE602C005906A
:1008F0000D92AA3DB107D9F724E0AAEDB1E001C0FD
:100900001D92AE30B207E1F70E94132A0C94EA342C
:1009100077CB9C01FB0191509F31B0F4832F817004
:1009200034FF0AC08295807F31FD806232FD806491
:1009300033FD80680995089531FD826032FD846041
:1009400033FFF8CF8860F6CF80E0F4CF0C944D34BD
:100950000895982F92959F7061F420E0982F892F29
:100960008695869511F02E5F982F892F8695820F98
:10097000089524E0F4CF282F92959F70963099F037
:1009800060F4925F9F70923030F4203FB1F038F401
:1009900081E0283E38F080E008959A5FF3CF81E04F
:1009A000243FC9F7089591E0813F09F090E081E08C
:1009B000283E08F080E0892B089581E00895809317
:1009C0008303089580938403089521E001C0220FDA
:1009D0008A95EAF780918403822BF4CF21E001C04D
:1009E000220F8A95EAF7822F8095909184038923BC
:1009F000E9CF9A3090F5883080F548E0949F9001D7
:100A00001124280F311D51E081FD54E080FD550F68
:100A100082FD529583E0369527958A95E1F7F90195
:100A2000EE0FFF1FE20FF31FEE51FD4F20E030E00D
:100A300070E04191DF01CB01022E02C096958795AF
:100A40000A94E2F78695880B8427852384278E9362
:100A50002F5F3F4F2330310561F708959A3070F5CD
:100A6000883060F548E0949F90011124280F311DD3
:100A70008770982F83E0369527958A95E1F7F901DD
:100A8000EE0FFF1FE20FF31FEE51FD4F40E050E06D
:100A900080E0219130E0092E02C0369527950A9416
:100AA000E2F72170042E01C0220F0A94EAF7822B8C
:100AB0004F5F5F4F4330510561F7089580E008951F
:100AC0009091840321E030E0F90101C0EE0F8A9596
:100AD000EAF7D90101C0AA0F6A95EAF7EA2B01C02B
:100AE000220F4A95EAF7892F8E23E81303C0892F36
:100AF000822B68CF2095822F8923FBCFE0918F0333
:100B000090918E03E91302C080E008959F0159E09F
:100B1000E59FF0011124E057FC4F5181561306C0A8
:100B20005081581303C05581541305C02F5F3F4FA8
:100B3000F901E770E7CF81E008958091E10290E04C
:100B400020E0022E001C0008281709060CF008956A
:100B50002F5FF7CFCF93DF93DB01FC01248121309E
:100B600059F514962C911497213031F5E18128E044
:100B7000E29FF0011124EC018881E80FF11DEB5A8E
:100B8000F74F94919A32C1F01196EC9188E0E89F6A
:100B9000F00111248E91E80FF11DEB5AF74FE4910B
:100BA00081E09E1301C080E091E0EA3209F090E01C
:100BB000892BDF91CF91089581E0FBCF9C0180913B
:100BC00085038D7999F4303570F43032B0F42333E5
:100BD000310501F1C0F481E02E31310580F424307B
:100BE000310520F00895932F965511F080E0089577
:100BF000C901805F96450797C8F330E0E8CF2C32F3
:100C00003105A1F708952653310981E023303105DC
:100C100048F3ECCF81E0089580918F0320918E03FB
:100C2000281301C0089501968770FACF9091890327
:100C30008095892380938903282F277081F4891751
:100C400071F090910A0492FF0AC086958695869568
:100C5000C5DE1092890310928A0310928B030895C7
:100C600090918503982B9093850308958095982FF4
:100C70008091850389238093850308958091810362
:100C8000811531F01092810310927F03109280033E
:100C90000895803E9105D1F1C8F48133910509F49E
:100CA00081C048F48932910509F471C08A329105F6
:100CB00009F47FC0089589339105E1F082389105E8
:100CC000C9F08533910509F45DC00895843E91050E
:100CD000D1F148F4823E910531F1833E910541F115
:100CE00081EE90E00895863E9105C1F1873E910521
:100CF000F1F1089520910904237009F064C0209156
:100D00000A0423FF14C089E290E0089520910904A9
:100D100020FD45C030910A0430FF09C024FD24C0E5
:100D200083EE90E008952091090422FDF7CF089505
:100D30002091090422FD44C030910A0430FD43C0D3
:100D400024FFF5CF11C020910A0421FFF0CF80913C
:100D5000090484FD09C087EE90E0089520910904FC
:100D600023FFE5CF24FFF7CF80E090E008952091A6
:100D7000090423FD2BC030910A0431FFE1CF84EE3A
:100D800090E008952091090425FFD1CFBCCF209198
:100D9000090425FD1EC020910A0423FFC8CF89E362
:100DA00090E008952091090426FFC1CF8AE290E0E7
:100DB00008952091090426FFBACF81E390E00895B9
:100DC00082EE90E0089580EE90E0089586EE90E047
:100DD000089585E390E008959091090492FF10C072
:100DE00041E0282F2471243009F040E031E0282F21
:100DF0002871283009F030E0431711F02CE08227E9
:100E000093FF10C041E0282F2471243109F040E005
:100E100031E0282F2871283109F030E0431711F014
:100E20002CE0822730910A0430FF10C051E0282FB7
:100E30002171213009F050E041E0282F287128303D
:100E400009F040E0541711F029E0822731FF10C06B
:100E500041E0282F2171213109F040E031E0282FB5
:100E60002871283109F030E0431711F029E082277A
:100E700094FD877E08950F931F93CF93DF9309DF2F
:100E8000EC01D23508F04DC0D03508F0C3C0C03EEB
:100E9000D10530F5CD3CD10508F09AC0C83AD1054E
:100EA00078F4C53AD10508F090C0C130D10599F168
:100EB000CE010497813A910570F1C0E0D0E02BC0DB
:100EC000CE01885A91094B97C0F7C85AD0E0CC0F91
:100ED000DD1FC259DE4F0990D881C02DD4641BC0DC
:100EE000D03490F4D03208F0A8C0C83ED10598F0B4
:100EF000CE0191509F3108F78D2F6EDF082F8C2F78
:100F000090E0C7DE902B54C08C2F90E0C2DEDF70E3
:100F1000C82FD92BD06ACE01DF91CF911F910F91AD
:100F20000895C03882E5D807B8F5C03682E5D807FD
:100F300008F056C0C03482E5D807C8F4C03282E554
:100F4000D80708F047C08C2F8695869520E2829FAF
:100F5000C0011124C37021E030E002C0220F331F12
:100F6000CA95E2F7E901C82BD92BDD68D4CF8C2FC5
:100F700086958695877020E2829FC0011124C370F8
:100F800021E030E002C0220F331FCA95E2F7E901E9
:100F9000C82BD92BDC68BFCFC03C82E5D80750F402
:100FA0008C2F8F71C03AD24580F5982F84EF906ACC
:100FB000EC01B1CFCE01805C9245809708F07DCFE7
:100FC000DC2FDF71C0EFD06AA6CFA497D064A3CF87
:100FD000D065A1CF8C2F8F71D82FC1EFD06A9BCF56
:100FE0008C2F86958695877020E2829FC001112400
:100FF000C37021E030E002C0220F331FCA95E2F730
:10100000E901C82BD92BDA6886CFE6DEC0E0D82FFD
:10101000D06281CF8C2F8F71DFDE93E0CC0FDD1F8C
:101020009A95E1F7DF70282F84FF04C090E1899F33
:1010300090011124C22FD0696ECF8D2F8F71CCDE1D
:10104000082F8C2F90E025DE902BEC01E1CF80E083
:101050000895E82FF0E0DF01AF56BD4FEC59FE4F89
:101060009C91808189230895F894E82FE295EF7090
:10107000F0E041A18F7021E001C0220F8A95EAF7CC
:10108000922F9095942391A392A1822F892B82A3D2
:1010900078940895E091C702F091C802309739F032
:1010A0000284F385E02D309711F060E209950895F0
:1010B000903218F4911106C008959C0130523033DB
:1010C00050F00895392F94FF02C03295307FFB0114
:1010D0002081232B208390E00895462B22FF0FC010
:1010E000982F92959F708F70892B962F92959F7055
:1010F0006F70692B942F92959F704F70492B982F8A
:101100009623961308C040955FEF90E0482359233B
:1011100081E0452B09F080E008958091E1039091F2
:10112000E203809311019093120108958091E503E9
:101130009091E6036AE070E00E942034609315010C
:101140008091E703809316018091EB038093030164
:101150008091ED03809302018091EF039091F00361
:101160006AE070E00E942034609313018091F103E3
:10117000809314018091F303809301018091F50322
:10118000809300010895CF93DF938FEF9FEF44305A
:10119000510508F458C02091090421FB882780F9E3
:1011A00090E0880F991F22FBAA27A0F9B0E0AA0FB0
:1011B000BB1FAA0FBB1F8A2B9B2BC22FC1708C2B6E
:1011C00023FBEE27E0F9F0E053E0EE0FFF1F5A9506
:1011D000E1F78E2B9F2B24FB442740F930E1439FFE
:1011E000A0011124842B952B25FB442740F930E2E4
:1011F000439FA0011124842B952B26FB442740F903
:1012000030E4439FA0011124842B952B27FB222738
:1012100020F940E8249F90011124822B932B2091E8
:101220000A04422F4170942B26952170322F330FE0
:10123000932BA92FAA0FAA0BFB0180839183A28372
:10124000A38380E090E0DF91CF9108959C0143E07B
:10125000369527954A95E1F72E7130E0F901EF5D5B
:10126000FD4F408151818F7090E0E82F81E002C0F6
:10127000880F991FEA95E2F7611541F0482B592B29
:101280002F5D3D4FF90140835183089580959095DE
:1012900048235923F5CFFC01AC014B5F5F4F8FEF23
:1012A00061E39191892728E030E0982F990F87FF1B
:1012B00009C0892F862721503040B9F7E417F50778
:1012C00081F70895892FF7CF0F931F93CF9301E0F4
:1012D000082E01C0000F0A94EAF7C0917E039C2FEC
:1012E0009023A9F4909189039695969596958913E4
:1012F00006C01092890310928A0310928B0365DB5B
:10130000C027C0937E03CF911F910F91089566DB94
:10131000F7CF382F25EB3203C001112497FF04C00B
:1013200080589109892F089580589F4FFBCF809155
:1013300002036091E9037091EA0380FF14C02091D9
:101340000301269FC001279F900D11249695879534
:1013500096958795BC0160387105E8F561157105B2
:10136000E1F1862F089581FF0AC020910301269F95
:10137000C001279F900D112496958795EBCF82FF92
:1013800009C0809103019B01829FB001839F700D72
:101390001124E1CF809101038115E9F290910201BE
:1013A00020910301891738F0CB01289FB001299FB4
:1013B000700D1124D0CF289F90011124269FA001E9
:1013C000279F500D369F500D1124692F70E0CA01E0
:1013D0000E942034C0CF8FE7089581E00895809166
:1013E000020380FF0CC06091010170E07595679564
:1013F000759567956115710541F1862F089581FFF7
:1014000006C06091010170E075956795F3CF60911A
:10141000010182FD0BC0909100039115A1F0609134
:10142000000180910101961738F0682F70E0603854
:10143000710500F38FE70895899FC001112470E0C2
:101440000E943434F4CF61E0D8CF81E008959091C8
:10145000600389029001112437FF03C08093600369
:1014600008952F3731051CF4980F90936003089569
:10147000A0E0B0E0FC01EA0FFB1FE491E41308C018
:1014800031E02A2F2327820F911DFC0184910895BA
:101490001196A61778F380E0089580919B0281153C
:1014A00071F0E091C702F091C802309739F00190D5
:1014B000F081E02D309711F00995089580E00895AE
:1014C000A3E0B0E0E6E6FAE00C94F93320911D02C7
:1014D00030911E0228173907B1F080931D029093B6
:1014E0001E02E091C702F091C802309761F00084BB
:1014F000F185E02D309739F023E029838A839B839F
:10150000CE01019609952396E2E00C941534A3E0F0
:10151000B0E0EDE8FAE00C94F93320911B02309131
:101520001C0228173907B1F080931B0290931C020C
:10153000E091C702F091C802309761F00084F18514
:10154000E02D309739F024E029838A839B83CE01F4
:10155000019609952396E2E00C9415349091390197
:10156000913099F0AEEDB1E0EFEF90E02C91821761
:1015700059F01196EF3F19F4211101C0E92F9F5F37
:101580009630A1F7EF3FC1F408959091090497FFB9
:10159000E9CFE82FE695E695E695803FA8F7F0E0DD
:1015A000EC51FE4F877021E001C0220F8A95EAF7C7
:1015B0008281822B82830895FE2FFF0FFF0BE4525E
:1015C000FE4FF8CF90913901913021F490910904A8
:1015D00097FD0CC0EEEDF1E09191891302C0DF019F
:1015E0001E9291E0E43EF907B9F70895E82FE695D9
:1015F000E695E695803FC8F7F0E0EC51FE4F9DEF91
:1016000081FD97EF80FF959582FD929582818923D8
:10161000828308958091380108952FB7F8948091BE
:10162000170290911802A0911902B0911A022FBFCF
:1016300008958091E3039091E403892B81F0EDDF1D
:1016400020917F0330918003821B930B9C0181E0EA
:101650004091E3035091E4032417350708F480E038
:101660000895CF93C091850380918803C82B809102
:101670008103811519F18091E3039091E403892B93
:1016800019F0D7DF8111FADA80918103C82B80919C
:101690003901813021F48091090487FD12C086E070
:1016A0002EED31E090E08150F90140812F5F3F4FF6
:1016B00041119F5F8111F7CF9111E0DA8C2FCF910B
:1016C00008958EE126EE31E0EDCF90910A0492FF6D
:1016D0000EC0982F990F990F990F962B909389030D
:1016E00074D99BDF80938A0390938B0308956DC90F
:1016F00090918103292F282359F080958923809385
:10170000810390E0811189DF80937F0390938003B0
:101710000895CF93C82F80910A0482FF0BC0809157
:1017200081038C1739F079DF80937F0390938003D6
:10173000C0938103CF91089570DF9C0190910503C0
:1017400080910603982B21F0209350023093510290
:101750009091070380910803982B21F020934E026B
:1017600030934F02E091C702F091C802309759F0D0
:101770000680F781E02D309731F082E080930303FB
:1017800083E093E009950895611509F440C0E82FBE
:10179000ED5CE33148F4F0E0E451FB4C0C94473449
:1017A000C6DD819580930603C7CFC1DDFBCFBFDDCA
:1017B000819580930503F8CFBADDFBCF10DE8093CF
:1017C0000703F2CF0CDE8195FACF09DE8195809375
:1017D0000803EACF04DEFBCF815D990B21E001C055
:1017E000220F8A95EAF780910403822B80930403E9
:1017F000DBCF80910203816080930203D5CF80917B
:1018000002038260F9CF809102038460F5CF40919A
:1018100005038D3C59F48091060387FF0DC010929B
:101820000603411559F41092010308C08E3C81F45F
:101830008091060318169CF3411581F080910703EF
:1018400090910803892B09F0AFCF10920003ACCF21
:101850008F3C41F447FFF0CF1092050380910603BF
:101860008115E0CF803D19F41416B4F3E5CF9091C3
:101870000703893D29F41916FCF610920703DCCF03
:101880008A3D19F497FFD8CFF8CF909108038B3D8C
:1018900029F497FFD1CF10920803CECF8C3D19F4D5
:1018A0001916CCF3C9CF982F915D983078F4815DEB
:1018B000990B21E001C0220F8A95EAF7822F8095CB
:1018C00090910403892380930403B6CF8D3D31F4B6
:1018D000809102038E7F80930203AECF8E3D21F470
:1018E000809102038D7FF7CF8F3D09F0A5CF8091C6
:1018F00002038B7FF0CF2FB7F8946091170270919D
:1019000018028091190290911A022FBF08958091B8
:101910009B02811539F0EFDF462F572FBC01CB0119
:10192000BA010895E8DFDC01CB0140919D0250919E
:101930009E0260919F027091A002480F591F6A1F7A
:101940007B1FEDCF87E797E780930008909301080E
:1019500088E19AE00FB6F894A895809360000FBED6
:1019600090936000FFCFFC0180910D0290910E02D8
:101970008617970748F06115710529F48091E800F2
:101980008E778093E800CB0140E0009741F441114D
:1019900006C08091E80082FF30C080E00895209169
:1019A00059022115B1F12530B1F12091E80023FD54
:1019B0002EC02091E80022FDECCF2091E80020FF0E
:1019C000E4CF4091F3002091F200342F009719F0FA
:1019D0002830310558F041E02830310509F040E069
:1019E0002091E8002E772093E800CFCF41914093DB
:1019F000F10001972F5F3F4FE9CF80915902811588
:101A000041F0853041F08091E80083FFC2CF81E052
:101A1000089582E0089583E00895982F9093E90057
:101A2000891771F07091EC002091ED005091F00059
:101A300021FD09C09F5F973089F78093E9000895E1
:101A4000762F242F50E03091EB003E7F3093EB0057
:101A50003091ED003D7F3093ED003091EB0031602F
:101A60003093EB007093EC002093ED005093F00066
:101A70002091EE0027FDDECF08958091070287FFB9
:101A800013C08091E80082FF06C08091E8008B7748
:101A90008093E8000895809159028111F2CF089552
:101AA000809159028115D9F38091E80080FFF8CF29
:101AB0008091E8008E77ECCF2091E4003091E50032
:101AC00095E6A9012091EC00822F817020FF06C0CD
:101AD0008091E80080FF06C080E008952091E80032
:101AE00022FD1AC080915902811589F0853089F054
:101AF0008091EB0085FD0FC02091E4003091E5005E
:101B000042175307F9F29150E1F684E0089582E01C
:101B1000089583E0089581E00895CF93DF93C8EDA1
:101B2000D0E088818F7E8883E7EDF0E0808181605E
:101B3000808384E082BF81E08093060288818E7F6B
:101B40008883E2EE10821092DA00A1EEB0E01C92DF
:101B500088818F77888388818068888388818F7D5A
:101B6000888319BC10925902109205021092420209
:101B700010920402A0EE8C918B7F8C9388818160FF
:101B8000888342E060E080E048DFA1EEB0E08C9125
:101B90008E7F8C93E2EEF0E0808181608083808193
:101BA00088608083E0EE80818E7F80838881806181
:101BB0008883DF91CF910895E8EDF0E080818E7FFA
:101BC00080831092E2001092DA001092E100A0EE01
:101BD000B0E08C9181608C9380818F77808319BC79
:101BE000A7ED8C918E7F8C9380818F7E8083109265
:101BF000060208959C012115310509F4089521502C
:101C000031098FE99FE00197F1F700C00000F3CFA1
:101C1000A0E0B0E0EEE0FEE00C94F1337C016B015B
:101C20005A0180917E020AE010E08A3010F001E053
:101C300010E0C1E0D0E0B601C701F50109958111BE
:101C400015C021960C171D078CF0CC9F9001CD9FDD
:101C5000300D300D112480E090E045E34A95F1F716
:101C60000000019682179307C1F7E5CFCDB7DEB725
:101C7000EAE00C940D340F931F93CF93DF93EB01A5
:101C80008A0190915902943059F58093E9008FEFC1
:101C90009091E80095FD06C095ED9A95F1F700004A
:101CA0008150B1F78091E80085FF1AC005DF8111EE
:101CB00012C08091E80085FD06C08091E8008E7713
:101CC0008093E800F3CF88818093F10001501040A9
:101CD00011F02196EECF8091E8008E778093E80096
:101CE000DF91CF911F910F910895603229F440E266
:101CF00050E0BC0182E0BFCF0895CF93DF93EC01A9
:101D000048E050E0BC0181E0B6DF88E0FE01AFE0D2
:101D1000B2E001900D928A95E1F7DF91CF9108959D
:101D200040E250E0BC0184E0A6CF46E050E0BC01B8
:101D300084E0A1CF43E050E0BC0184E09CCFFC01F3
:101D40006081718184E090E00C94CF3490910A041A
:101D500092FB222720F9281751F080FB92F99093EB
:101D60000A0489E094E0EBDF82E00C941606089503
:101D70001F93CF93DF93122F8430D8F46A30C8F4C6
:101D80004830B8F490E1699FE0011124C40FD11DDF
:101D9000C40FD11D90EA899FC00DD11D1124632F5E
:101DA000CE0189960E94B534612FCE018A960E9499
:101DB000B534DF91CF911F91089580913901813021
:101DC00061F58091090487FF28C04BDC8093E50111
:101DD00040E250E067EA72E084EE91E00E946C34E9
:101DE000892BD1F080E2E4EEF1E0A7EAB2E00190C5
:101DF0000D928A95E1F7E091C702F091C802309701
:101E000059F00480F581E02D309731F086E0809321
:101E1000E40184EE91E00995089523DC8093DC01D0
:101E200048E050E069EC72E08CED91E00E946C3487
:101E3000892B91F388E0ECEDF1E0A9ECB2E00190A0
:101E40000D928A95E1F7E091C702F091C8023097B0
:101E500019F30280F381E02D3097F1F28CED91E0DF
:101E6000DACF811519F00E943006A7CF08958115A9
:101E700031F090918803982B909388039ECF08951A
:101E8000811519F00E94360698CF0895811539F012
:101E90008095909188038923809388038ECF08953D
:101EA00080916B03811521F082E2F0DF10926B03C9
:101EB0000895CF93C82F8115C1F08450813A70F5F1
:101EC00080913901813021F48091090487FD0FC090
:101ED000EEEDF1E08081C817E9F0319681E0E43E53
:101EE000F807C1F78C2F3ADB68DFCF910895EC2F0C
:101EF000E695E695E695F0E0EC51FE4F828190E0A4
:101F00004C2F477021E001C0220F4A95EAF7822347
:101F1000892B41F38C2F56DB50DFE4CF8C2F805E72
:101F2000883050F481E0C1FD84E0C0FD880FC2FD1F
:101F300082950E943006D8CF8C2F855A833028F4A2
:101F40008C2F8452990BBCDAD0CFEC2FE85AEB31AE
:101F500048F4F0E0EE0FFF1FEC55FE4F80819181B9
:101F6000D6DAC3CF8C2F8D5C833108F0BECF61E011
:101F70008C2F0ADCBACFCF93DF93EC01805E9109FE
:101F8000089720F067E37FE0209711F461E37FE09A
:101F9000CE010E9489048C2F8CDFDF91CF910895B0
:101FA000611529F0209188032260209388039C0109
:101FB0003052303308F490E0DECF811549F1982F8C
:101FC0009450913A10F4FEDAF8CE982F905E983043
:101FD00058F4982F81E091FD84E090FD880F92FDE8
:101FE00082950E943606F0CF982F955A933018F4B8
:101FF00080E090E065CA982F985A9B3118F480E0F1
:1020000090E085CA982F9D5C933110F460E0BCCBC2
:102010000895CF93DF93EC01D0DFCE01805E91096C
:10202000089720F066E47FE0209711F460E47FE0F9
:10203000CE010E948904DF91CF9108951F93CF9321
:10204000DF93182FC0910104D0910204893321F04D
:10205000C091FF03D0910004812F2BDF209731F432
:10206000812FABDFDF91CF911F9108958FE99FE022
:102070000197F1F700C000002197F0CFFF920F9376
:102080001F93CF93DF93C62FD42FF22E8115A1F08B
:1020900060937C03C2DA80931F029093200281E058
:1020A000C1FD84E0C0FD880FC2FD8295DADECDB7A8
:1020B000DEB7E5E00C94123480917C0368132DC0E8
:1020C00000911F0210912002A8DA801B910B883C1E
:1020D000910518F51D2F105ECD1791F0C77001E026
:1020E000802F01C0880FCA95EAF7CADE183040F485
:1020F0008D2F877001C0000F8A95EAF7802FB1DE1F
:102100008F2D9CDF81E0D1FD84E0D0FD880FD2FDD2
:102110008295183060F6B4DECACF81E0C1FD84E05C
:10212000C0FD880FC2FD8295F6CF10928503809185
:102130003901813001F58091090487FF1CC0E6EE6A
:10214000F1E08EE111928A95E9F780E090E0B8D94C
:1021500080E090E0DCD9109288032FDEE3E0F3E02A
:1021600086E011928A95E9F710920103109200031C
:1021700010920203E1CAEEEDF1E086E0E3CFD5DF95
:102180008FEF94E32CE0815090402040E1F700C0B5
:10219000000088E19AE00FB6F894A895809360005B
:1021A0000FBE90936000FFCFCF93DF93EC0180913F
:1021B000E102883010F0B9DF80E0E82FF0E0EE0FA8
:1021C000FF1FEF52FD4F9E01C08331838F5F8093CD
:1021D000E102DF91CF910895CF93DF938FEF9FEFCF
:1021E0004430510590F0FB01D081C1819EDFD09336
:1021F0000904C37080910A048C7FC82BC0930A0421
:1022000089E094E09CDD80E090E0DF91CF9108953B
:10221000AAE2B0E0EEE0F1E10C94F83387E092E05E
:10222000FC0101962091F100208322E08F3092077B
:10223000B9F780910802893009F457C0C8F4823098
:1022400009F4B3C0833009F483C0813081F18091F7
:10225000E80083FFE7C080910702909108029A305E
:1022600008F0E0C0E92FF0E0E150FB4C0C9447345B
:102270008A3009F48AC08B3051F78091070281328D
:1022800031F780910B0290910C02892B01F780911C
:10229000E800877F8093E800F0DB81E090910902FD
:1022A000911101C080E0809339013FDFD0CF809150
:1022B0000702813A61F68091E800877F8093E80009
:1022C00080910B0290910C02892B59F060E080E024
:1022D00090E070E048DB8091E8008B778093E80025
:1022E000B6CF68E08FE092E0F4CF809107028132B0
:1022F00009F0ADCF80910B0290910C028D7F892B5C
:1023000009F0A5CF8091E800877F8093E800809155
:10231000E80082FF18C02091F3008091F200922F14
:10232000029731F48091F100813011F0863021F470
:102330008091F100809338018091E8008B77809341
:10234000E8009BDB84CF809159028111E0CF7FCFE1
:1023500080910702813A09F07ACF80910B02909127
:102360000C02892B09F073CF8091E800877F80935E
:10237000E8008091E80080FFFCCF809139018093D4
:10238000F1008091E8008E77DACF809107028132E8
:1023900009F05DCF8091E800877F8093E8006DDBD6
:1023A00080910A028093370152CF80910702813ACF
:1023B00009F04DCF8091E800877F8093E8008091FD
:1023C000E80080FFFCCF80913701D9CF803889F0B9
:1023D000823841F580910B028F70873018F5809319
:1023E000E9008091EB0085FB882780F91092E900D5
:1023F00006C080914202880F90910402892B90912F
:10240000E800977F9093E8008093F1001092F1002C
:102410008091E8008E7723C0811116C08091090257
:10242000813009F18091E80083FF0AC08091E800C3
:10243000877F8093E8008091EB0080628093EB00BF
:10244000AA96E3E00C941434823061F7809109027B
:10245000811579F01092E9008091E800877F8093E0
:10246000E8000BDBDFCF933009F080E0809342027D
:10247000F1CF80910B028F70282F2150263090F6DB
:102480008093E9002091EB0020FFE4CF933031F4FA
:102490008091EB0080628093EB00DCCF9091EB00A9
:1024A00090619093EB0021E001C0220F8A95EAF73A
:1024B0002093EA001092EA008091EB008860EBCF55
:1024C0008111B0CF809109028F77182F8091E3009E
:1024D0008078812B8093E3008091E800877F809350
:1024E000E800CBDA8091E80080FFFCCF8091E30028
:1024F00080688093E30083E0111101C082E0809343
:10250000590290CF8058823008F08CCF8091090218
:1025100090910A028C3D23E0920789F583E08A833B
:102520008AE289834FB7F894DE01139620E03EE0FB
:1025300051E2E32FF0E050935700849120FF03C055
:1025400082958F703F5F8F708A30B8F0895C8D9371
:102550001D922F5F243169F74FBF8091E800877F7C
:102560008093E8006AE270E0CE010196FCD9809188
:10257000E8008B778093E80055CF805DE8CF292F66
:1025800030E02330310509F44EC078F521303105B3
:1025900009F486C08BE590E0E8ECF1E022303105EB
:1025A00009F040CF2091E800277F2093E800209198
:1025B0000D0230910E028217930708F49C0140E04F
:1025C0002115310509F071C041116FC08091E800FB
:1025D00082FDCDCF80915902811549F2853039F2C3
:1025E0008091E80083FFF2CFC2CF80910B029091DF
:1025F0000C022132310509F444C02232310509F0C0
:1026000011CF8330910508F00DCFFC01EE0FFF1FB5
:10261000E75BFE4F0190F081E02D8A5B9E4FDC016D
:102620008C9190E010C0282F30E0823011F12330DF
:10263000310568F4232BA9F4E5E7F2E0E4918E2F4D
:1026400090E0E5E7F2E0009709F4ECCEABCF09F0BB
:10265000E9CEE5E3F2E0E4918E2F90E0E5E3F2E0ED
:10266000F2CFE1E6F2E0E4918E2F90E0E1E6F2E0D5
:10267000EACFE3E5F2E0E4918E2F90E0E3E5F2E0CB
:10268000E2CF8330910508F0CDCE880F991FFC0171
:10269000E15BFE4F0190F081E02D89E090E082CF78
:1026A00082E190E0E3E2F2E07DCF80915902811572
:1026B00009F45DCF853009F45ACF8091E80083FD9D
:1026C00056CF8091E80082FD81CF8091E80080FFA5
:1026D00077CF4091F3008091F200942F21153105BE
:1026E00019F08830910550F041E0089709F040E07A
:1026F0008091E8008E778093E80062CF4491409308
:10270000F1003196215031090196E8CF803809F067
:1027100089CE8091E800877F8093E8008091050250
:102720008093F10075CE81117DCE80910902182F22
:10273000823008F077CE8091E800877F8093E800B0
:10274000109305029AD91115D9F084E080935902AB
:1027500042E061EC81E061D942E261EC84E05DD964
:1027600042E261EC82E059D942E260EC83E055D963
:1027700080915902843051F482E080933A0152CE24
:102780008091E30087FDE1CF81E0E0CF81E0F5CFEC
:1027900080913B01877F80933B0180916B03811186
:1027A00005C0809188038D7F8093880380913B01D1
:1027B00084FF06C08F7E80933B0182E00E9430063A
:1027C00080913B0185FF06C08F7D80933B0180E2B5
:1027D0000E943006F2CAA0E0B0E0E1EFF3E10C9411
:1027E000F433EC018B01D42E80913B0182FF5FC05A
:1027F000E0907103F0907203EC16FD0619F020973B
:1028000009F055C080913B018B7F80933B01C1E073
:1028100081FD10C080916F03909170039801281B77
:10282000390BC1E0809111019091120128173907ED
:1028300008F4C0E080913B01C0FB81F980933B012B
:102840006C2FC7010E9426098091850381FF08C073
:1028500080913B01806180933B0182E00E943606BB
:102860008091850385FF08C080913B018062809341
:102870003B0180E20E9436066C2FC70191DBD11428
:1028800029F08091FC038076803219F18091FF035A
:1028900090910004AFD980917103909172039C01D3
:1028A0003052303308F490E0B4DB72DF0EC0CE015A
:1028B0009052903398F48C2F90E0ABDB80917103B1
:1028C00090917203C817D90781F300936F03109397
:1028D0007003CDB7DEB7E7E00C941034CE01EDCF36
:1028E000AFE0B0E0E6E7F4E10C94F033FE0131969E
:1028F000DF018AE01D928A95E9F787E5C82E81E01D
:10290000D82E7F01AE2E9F2C04E611E0F6018191B6
:102910006F018F3F09F43DC0F894E82FE295EF7006
:10292000F0E021A18F7041E001C0440F8A95EAF7E1
:10293000922F942B91A392A1842F8095892382A317
:10294000789400C0ECE5F1E031E0B12C21912F3F0B
:1029500079F0A22FA295AF70A05EB0E08C9190E0CC
:102960002F7002C0959587952A95E2F780FF7FC06A
:1029700080E0B82A330F0E171F0741F7F601829146
:102980008F3F11F00E94340880EA8A95F1F7F70131
:10299000B0828FEFE81AF80A8CE5C81681E0D806F5
:1029A00009F0B4CF4AE050E06A2D792D87E892E033
:1029B0000E946C34009749F02AE0EA2DF92DA7E82F
:1029C000B2E001900D922A95E1F70091860210E0A5
:1029D0000F561D4F892B09F44CC081E0809385026E
:1029E0000E940D0B809383029093840280919B023E
:1029F000811509F498C07E018BE0E80EF11CF70107
:102A000085E011928A95E9F780917E028A3008F07C
:102A100054C046E257E1B701C801FAD8811509F45C
:102A200070C044EC57E1B701C801F2D8811509F430
:102A300068C049EC56E1B701C801EAD8811509F42C
:102A400060C010927E028091820290E045E050E0EA
:102A5000B7018F569D4F0E946C3421E02093810274
:102A6000892B09F041C02F96EBE00C940C34832F96
:102A700080CF80918502811509F4B8CFE090830260
:102A8000F09084020E940D0B8E199F09059708F49F
:102A9000ADCF45E050E067E872E0C8010E946C34B9
:102AA000892B41F085E0E7E8F2E0D80101900D9232
:102AB0008A95E1F71092850299CFC0907F02D0905D
:102AC00080020E940D0B8C199D09843F914008F0F3
:102AD000A0CF80918102811531F2F70185E011923A
:102AE0008A95E9F710928102A0918202B0E0AF5678
:102AF000BD4F85E0FE013B9601900D928A95E1F76E
:102B0000B2CF80917E028F3F39F40E940D0B8093EB
:102B10007F0290938002DDCF8F5F80937E028A30A8
:102B200008F491CFF2CFE0908202F12CC7018F56CA
:102B30009D4F7C0185E0F801A3E6B2E001900D9283
:102B40008A95E1F783E692E00E944B098093620246
:102B500085E0E8E6F2E0D70101900D928A95E1F771
:102B6000C0906D02D0906E02E0906F02F090700203
:102B700080917A0290917B02A0917C02B0917D02BB
:102B8000C816D906EA06FB0609F46DCFC0927A0290
:102B9000D0927B02E0927C02F0927D020E947B0C3C
:102BA000C61AD70AE80AF90AC0929D02D0929E027C
:102BB000E0929F02F092A00256CF9B01BA01FC0165
:102BC0003296E4914E2F50E06E17710550F0049646
:102BD000FC0165917491C9010E94793480E090E014
:102BE00008958FEF9FEF0895EF92FF921F93CF9379
:102BF000DF9300D000D0CDB7DEB77B01FC01339668
:102C0000149119821A821B821C82452B61F48FEF6A
:102C10009FEF0F900F900F900F90DF91CF911F912A
:102C2000FF90EF90089544E050E09E012F5F3F4FEA
:102C3000B901C3DF019659F381E090E002C0880F2B
:102C4000991F1A95E2F7A92FAA0FAA0BBA2F49814B
:102C50005A816B817C8184239523A623B72321E0AD
:102C6000892B8A2B8B2B09F420E0F701208380E04D
:102C700090E0CFCFA0E0B0E0E0E4F6E10C94F233D6
:102C8000EC0198819130D0F009F03EC0898181300B
:102C900021F48A812396D2D9F4CF823021F48A811B
:102CA000239607D9EECF833021F48A81239685D9E4
:102CB000E8CF843041F022968111E3CFCDB7DEB763
:102CC000E9E00C940E348A81239620E030E09AE00B
:102CD000482F4053550B4A30510560F021153105FE
:102CE00059F3EFE9FFE03197F1F700C00000215000
:102CF0003109F4CF929FB001939F700D11249A0176
:102D0000260F371F8991E4CF2196E92FF0E0E75590
:102D1000FD4F8491B82E292F26952695269530E0D3
:102D2000F901E756FD4FE4909770F12C092E02C08F
:102D3000F594E7940A94E2F7F901E757FD4FC49040
:102D4000D12C092E02C0D594C7940A94E2F72758D3
:102D50003D4FF901049110E002C0159507959A9531
:102D6000E2F7E0FE02C081EEA4D8C0FE02C086EE0B
:102D7000A0D88B2D9ED88B2D20D9C0FE02C086EE08
:102D80001CD9E0FE02C081EE18D900FF7ACF8CE298
:102D900082CFCF92DF92EF92FF921F93CF93DF9378
:102DA00000D000D0CDB7DEB7C0905A02D0905B0201
:102DB000E0905C02F0905D020E947B0CDC01CB0194
:102DC0008C199D09AE09BF0911E084369105A10552
:102DD000B10578F10E94870CDC01CB010296A11DA0
:102DE000B11D89839A83AB83BC838091300190911C
:102DF00031018E599D4F20912F01422F50E02530F7
:102E000008F044E09E012F5F3F4FB9010E947934E2
:102E100083E090E00E947B33182F811551F00E94CF
:102E20007B0C60935A0270935B0280935C029093D8
:102E30005D02812F0F900F900F900F90DF91CF9137
:102E40001F91FF90EF90DF90CF900895AF92BF92C7
:102E5000CF92DF92EF92FF921F93CF93DF9300D038
:102E600000D000D0CDB7DEB75B0180E090E00E94DB
:102E70007B33182F811509F461C080911A01482F06
:102E800050E0811141E060911B0170911C016E596D
:102E90007D4FCE0106960E947934C0907602D09084
:102EA0007702E0907802F09079020E947B0CDC01BE
:102EB000CB018C199D09AE09BF0984369105A10586
:102EC000B10538F483E692E00E944B099E81891790
:102ED000A9F181E090E00E947B338115E1F18091BE
:102EE0002201482F50E0863008F045E06091230130
:102EF000709124016E597D4FCE0101960E94793464
:102F000083E692E00E944B099E81891324C00E94AF
:102F10007B0C609376027093770280937802909393
:102F2000790285E09E012F5F3F4FF901A1E7B2E0F2
:102F300001900D928A95E1F781E00EC085E0E3E60D
:102F4000F2E09E012F5F3F4FD90101900D928A95CB
:102F5000E1F71111E6CF80E095E0E1E7F2E0D5017D
:102F600001900D929A95E1F70F900F900F900F90AE
:102F70000F900F90DF91CF911F91FF90EF90DF9016
:102F8000CF90BF90AF900895A0E0B0E0EAECF7E1F9
:102F90000C94F333EC0145E050E068E672E00E94E7
:102FA0006C348C01C0905E02D0905F02E0906002B1
:102FB000F09061020E947B0CDC01CB018C199D0911
:102FC000AE09BF0984369105A105B10518F4C80101
:102FD000892B01F180912801909129018E599D4FF3
:102FE00020912701422F50E0263008F045E0BE0135
:102FF0000E94793482E090E00E947B33811559F081
:103000000E947B0C60935E0270935F02809360026B
:103010009093610281E0CDB7DEB7E8E00C940F3405
:103020000F931F93CF93DF9301EE13E0C9EAD2E031
:10303000CE010E949934F80161918F01681719F04F
:10304000CE010E94B5342196C13D82E0D80781F7B8
:10305000DF91CF911F910F910895FC013296E49179
:103060002E2F30E04E17510558F00496FC01859143
:103070009491A9010E947934D3DF80E090E0089513
:103080008FEF9FEF0895AF92BF92DF92EF92FF9282
:103090000F931F93CF93DF9300D000D0CDB7DEB74F
:1030A0007C015B01FC013396D49019821A821B8249
:1030B0001C82452B81F48FEF9FEF0F900F900F90A4
:1030C0000F90DF91CF911F910F91FF90EF90DF90C4
:1030D000BF90AF90089544E050E0CE010196BC014E
:1030E000C7016BDD019639F381E090E00D2C02C041
:1030F000880F991F0A94E2F780959095A92FAA0F3F
:10310000AA0BBA2F49815A816B817C818423952334
:10311000A623B723F5012081022F017010E002C021
:10312000000F111FDA94E2F7212F220F220B802BC0
:10313000912BA22BB22B89839A83AB83BC8344E06F
:1031400050E0CE010196BC01C70187DFB6CF0F93D7
:103150001F93CF93DF9301EE13E0C9EAD2E0CE01D3
:103160000E949934F80181938F012196C13D82E03C
:10317000D807A9F7C3E1D5E0FE01859194910097A6
:1031800011F0FC0109952C9686E0CB34D807A1F705
:10319000DF91CF911F910F9108951092FB03109230
:1031A000FC038FEA8093E1031092E20325E0209371
:1031B000FD0388E893E18093E3039093E4038AE0BE
:1031C0008093E5031092E60344E14093E7031092F5
:1031D000E80348E04093E9031092EA038093EB038D
:1031E0001092EC036EE16093ED031092EE03809376
:1031F000EF031092F00380E58093F1031092F20345
:103200004093F3031092F40348E24093F5031092C5
:10321000F60342E34093F7031092F80348EC40931F
:10322000F9031092FA031092FE03409305041092E2
:1032300006041092FF031092000480930104109280
:103240000204209303041092070410920804E8DE9D
:103250000E9495101092090410920A0480E0846084
:1032600080930A0489E094E00E949F0E70CF0F9330
:103270001F93CF93DF93843000F56A30F0F4483029
:10328000E0F490E1699FE0011124C40FD11DC40F47
:10329000D11D90EA899FC00DD11D1124CE018996C0
:1032A0000E949934082FCE018A960E949934902F5B
:1032B000DF91CF911F910F91089580E090E0F8CFBA
:1032C000462F2091A3023091A402232B89F4703F52
:1032D00039F4603F69F48091A1029091A2020895AF
:1032E0007A3030F4683020F4843010F4672FBFCF88
:1032F00080E090E00895CF92DF92FF920F931F93AA
:10330000CF93DF936C010091840380918303082B9A
:10331000C3E0D0E010E0C8010C2E02C0959587955F
:103320000A94E2F780FD0CC02197A8F7F12C8F2DAD
:10333000DF91CF911F910F91FF90DF90CF90089573
:10334000FC2EB6018C2FBCDF0E943B07019761F376
:10335000EECF0F931F93CF938C01611579F0411538
:1033600069F0C9DFC82F682FC8010E94F904B801AD
:103370008C2FA6DFCF911F910F9108950E942E05EB
:10338000C82FF5CFFC01462F278130852115310547
:1033900029F4658180819181DCDF9C01C901089558
:1033A000CF93DF93EC01A7DFBE018ADF0E943B07CA
:1033B000DF91CF910895FC018481811541F08781CF
:1033C0009085009729F00E943B070C94BB04089558
:1033D00080819181E5DFF9CF6F3F7105810591050E
:1033E00028F4CB018F5F9C4F0C94993480E00895B2
:1033F000A9E0B0E0EEEFF9E10C94E9337C01FC01C7
:103400008481811509F405C160E0C701BBDFF701C4
:103410002681203170F440918F0330918E03431345
:103420002CC03091DD03311521F03091DE033031B5
:1034300020F1F701358131110CC0903508F053C0EF
:10344000903208F067C0883E910588F4803E91056F
:10345000A0F48093090390930A03F701828193817A
:1034600080938C0390938D0310923C0106C09C01C5
:1034700031503F3170F78111ECCF61E0C70182DF3D
:103480008C0180916A0381114BC0F7018581811500
:1034900009F476C0103508F05FC0103208F0BDC0E6
:1034A000011587E01807E1F1B8F5C801805E9109C0
:1034B0000897B0F18091880390918503892B9091B2
:1034C0008103892B99E0F701A6E5B3E001900D9205
:1034D0009A95E1F700935D0310935E0310926003E9
:1034E000809355031DC0803E22E5920768F4803822
:1034F00022E5920708F0C1CF9C01205232452032CC
:10350000310508F0A6CFB9CF9C0127573C472230A0
:103510003105F7CF2031F5CF01158FE0180751F6AF
:10352000F7014581411160C103378CE7180709F4A1
:1035300061C0023A82E5180709F45EC208F037C29A
:10354000C8019052903208F44BC2013E110509F4B3
:1035500053C2053E11052EC2003E92E5190748F4FC
:10356000003682E51807E0F6C801925580349105CF
:10357000A0CF980127573C472530310508F09ACF56
:1035800009379CE7190709F04BC020915D03309182
:103590005E03232B79F18115A1F081E00E94270AB7
:1035A000809155030E94370F89E0E6E5F3E0ACE037
:1035B000B3E001900D928A95E1F7809160038093CA
:1035C0000B0386E0F701ACE0B3E001900D928A9521
:1035D000E1F780910B0380936A038CE093E008DFAE
:1035E00010926A03F7018581811104C0809155030F
:1035F0000E94460F80918903877059F0F7018581F9
:10360000811539F080910A0482FF03C082E00E9494
:1036100016062996E2E10C9405348681803149CF63
:103620000A379CE7190709F07BCF811509F4B1C06F
:10363000C0905D03D0905E03109155031983CE01B5
:103640000196BC01C6010E9458082C018981888717
:1036500075E1672E73E0772EE1E0AE2EB12C8FEF8F
:103660008F83F301078103FF4DC02080318082806A
:10367000938042145304A9F484818987202F4681C2
:10368000682F88850E946D08811559F089850E94F0
:10369000A6049F8198172CF4F30125815401B22AC6
:1036A0008F8348145904C1F401FF16C0F3018581CA
:1036B0008987202F4681682F88850E946D08811593
:1036C00059F089850E94A6049F8198172CF4F30174
:1036D00024815101B22A8F8300FF14C08F818F3F54
:1036E00089F481E0A816B10469F4202FF301468122
:1036F00060E088850E946D08811521F0F3018581C5
:103700005401B82A88E0680E711C85E593E086159F
:10371000970509F0A6CF81E0A816B10481F5012F25
:1037200002950F70012B0F7081E0103108F480E0DA
:1037300080FD006180E2D816E0F4D1104EC09C2CD0
:10374000802F8D704C2D811509F44AC06AE08BECF6
:1037500098E00E94380AA82E811109C0492D6EE117
:1037600085EA98E00E94380AA82E811531F0B02E23
:1037700006C0C6019052903388F1A12CB12CE1E62D
:10378000F3E087E011928A95E9F7A0926803B0927E
:1037900069038091680390916903892B09F42ACF0A
:1037A000F7018581811539F08FEF0E94270A8091FA
:1037B000600380935F0386E0F701A1E6B3E0019028
:1037C0000D928A95E1F780915F0380936A0381E609
:1037D00093E00EDE10926A030DCF0D29D12CAFCFEE
:1037E00068E083EC98E0B5CFC80197578038910521
:1037F00008F0C3C7083008F0FDCE6EEF70E080E03F
:1038000090E0EADD8111F6CEA12CB12C4501011129
:1038100039C08E010F5F1F4FF80184E011928A9525
:10382000E9F7B401C501D8DD8983811509F4E2CE39
:10383000240135019FEF491A590A690A790A813032
:10384000F1F4B201C301C8DD382E8A83811509F471
:10385000D1CEB401C5016E5F7F4F8F4F9F4F232D97
:103860002150233028F523E0820E911CA11CB11CAD
:1038700024013501B1DD8B83811509F453C0C801E2
:10388000F9D950C08FEF88169104A104B10409F44E
:10389000B1CEB401C501A0DD9FEF891A990AA90A2A
:1038A000B90A8111EFCF0150B2CF2B013C013AC0D0
:1038B000232D25502330C8F52401350123E0420E85
:1038C000511C611C711C88DD8B83811559F184E0CA
:1038D000880E911CA11CB11CB201C3017DDD8C833B
:1038E0008115F1F0CB80DC8081E0C8168FEFD8061F
:1038F00010F0DC2CC12C832D863079F0873049F014
:10390000C6010E94BE288091FF03909100040E948E
:10391000FA0DC6010E94DD2803C0C6010E94BE2820
:10392000240135014201530177CF232D243009F0C2
:10393000BCCF52DDD82E811509F45CCEB401C5018F
:103940006D5F7F4F8F4F9F4F47DD811509F452CE3A
:1039500094E0890E911CA11CB11C24013501282F73
:103960002150330B4FEF429FC001439F900D112414
:103970002D2D2150330B820F931F009799F2019741
:10398000EFE9FFE03197F1F700C00000F6CF1092A9
:1039900085030E943E060E940D0B88579C4E809323
:1039A0006C0390936D0381E080936B0323CE023B05
:1039B00082E51807C1F525EE30E0277081E001C0EF
:1039C000880F2A95EAF7682F20916E0330916B03D8
:1039D0003115D1F0411599F0282B20936E030ACEB2
:1039E000F70186818031F8F4812F8F7190E0823069
:1039F000910511F04297DECF21EE30E0DECF8095C9
:103A0000822380936E03F6CD322F362361F0982FF8
:103A10009095922390936E030E943606F70185815C
:103A2000811509F4E7CD80916B03811509F46EC00F
:103A3000C0908503D09081030E940D0B88579C4E47
:103A400080936C0390936D03F7018581811509F4D0
:103A50005DC08D2D8C298D7909F0B1C0103588F5A8
:103A6000103408F0B3C0063E110509F44FC0C80178
:103A700090529032D8F58681803108F499C0802F19
:103A800090E020913B0120FFA9C02DEF20953091BF
:103A900088032323209388038D32910571F008F069
:103AA000AEC08832910508F09BC08E31910508F0B8
:103AB00099C004974A9708F082C082E080938803F7
:103AC00091C0003E82E51807C0F4003C82E518076B
:103AD000E8F4003A82E5180758F4003682E5180742
:103AE000A8F4C80192558034910580F0C801C9CF6F
:103AF000043B82E5180751F0F9CF09378CE7180726
:103B000008F052C007378CE7180780F38091FC0358
:103B100080FFCEC00E940D0B6C01F70185818115DD
:103B200009F4D7C080913B0182FF06C040E0B60196
:103B300080E090E00E94EB1304318CE7180709F451
:103B4000C4C005318CE7180709F45FC003318CE766
:103B5000180709F4A0C0C8019052903308F05FC064
:103B60001092710310927203F7019581911509F477
:103B70000FC210927C03980130572332310508F0B0
:103B800007C284E090E00E94A134809309049093DE
:103B90000A04F801E150F047E232F10508F042C1B1
:103BA000E75FFA4C0C9447340B378CE71807A3CF28
:103BB000812F8F71843109F4A9CF863161F00E9481
:103BC000500F80916E030E943006A0CF8681803115
:103BD00008F055CF9BCF86EE92E153CF2FEF56CF13
:103BE0008A9769F780916E03811531F0809188037F
:103BF00092E08927809388030E94DD0E87CF8C3462
:103C0000910581F38D329240ECCF90913B01892F49
:103C10008E7F90FF816080933B010E94C81380914A
:103C20003B0180FF45C00832110508F067C00E3126
:103C3000110508F074C0C80104974A9788F580916F
:103C4000FC0384FD2DC0F7018581811509F4C7C0EF
:103C50009091850380918103282F292B822E2D7F1F
:103C600009F462C010927103109272032091FC0358
:103C700021FD5AC060E0C8010E94260960E0C80129
:103C80000E94D00F809181038D7F0E94890B82E07A
:103C90000E941606AFCC80913B01816080933B016E
:103CA000F7018581811521F0109271031092720342
:103CB000F7018581F801E851FC47E730F10508F08C
:103CC00053CFE55DFA4C0C94473480913B018E7FD5
:103CD000A2CF80913B018F7E013E110531F0053E60
:103CE000110531F480913B018F7D80933B0197CF8B
:103CF000C8019052903308F092CF36CF09331105A6
:103D000058F40D32110518F40B32110549F6809163
:103D1000FC0382FDC5CF97CF04361105F7CF809104
:103D2000FC0383FDBDCF8FCF29E0F701A3E7B3E00C
:103D300001900D922A95E1F7109275031092760387
:103D4000A0907103B09072030A151B0591F52091A4
:103D5000FC0325FF2EC030913B0131FB992490F8E4
:103D600031FF02C026FF25C020916F033091700300
:103D7000A601421B530B483C5105D8F491FF08C0E3
:103D800080913B01806180933B0182E00E94360676
:103D90008091850385FF08C080913B0180628093FC
:103DA0003B0180E20E943606692DC5010E94D00FBA
:103DB00021CC8D7F0E94890B0093710310937203B5
:103DC000C0926F03D0927003882D82708460982F08
:103DD00080913B01897F982B90933B0158CF40E025
:103DE000B601C8010E94EB1305CC26E241EE61EE5C
:103DF0000E943E10FFCB27E245EE65EEF9CF26E2AA
:103E000041EE60EEF5CF27E245EE64EEF1CF26E21B
:103E100041EE62EEEDCF27E245EE66EEE9CF28E215
:103E200041E0EBCF8091090481608093090489E02F
:103E300094E00E949F0E0E949510DCCB80910A04B2
:103E4000886080930A04F3CF809109048260EDCFEB
:103E5000809109048460E9CF809109048860E5CFEE
:103E600080910A048160EDCF80910A048260E9CFDD
:103E7000809109048061D9CF809109048062D5CFF7
:103E8000809109048064D1CF0E949510809109042B
:103E90008068CBCF809109048C60C7CF80910A04E1
:103EA0008360CFCF809109048E7FBFCF80910A04B9
:103EB000877FC7CF809109048D7FB7CF8091090498
:103EC0008B7FB3CF80910904877FAFCF80910A04A5
:103ED0008E7FB7CF80910A048D7FB3CF8091090484
:103EE0008F7EA3CF809109048F7D9FCF809109049D
:103EF0008F7B9BCF0E949510809109048F7795CF7F
:103F000080910904837F91CF80910A048C7F99CF9F
:103F100090910904892F8B7F92FF8460877F92FFA5
:103F2000886083CF80910A04982F909590FB80F948
:103F300090FB81F986CF90910904892F8F7B96FFA2
:103F4000806473CF0E94951090910904892F97FB8C
:103F500087F980586ACF61E08EE090E00E94B53426
:103F600066CF60E0F9CF90910904892F8F7E94FF8E
:103F700080615BCF90910904892F8E7F90FF8160D3
:103F800054CF90910A04892F877F93FF886059CF7F
:103F900006318CE71807C9F5809185033091FB0342
:103FA00030FD24C0282F2A7A31FF04C0482F4171E8
:103FB00009F020E032FF04C0482F487809F020E0E3
:103FC00033FF03C0827209F020E09115A1F081E077
:103FD000211101C080E080937D0385E3211101C0A0
:103FE00089E20E94AE0A0E94DD0E04CB282F2474C1
:103FF000C9F220E0D9CF80917D03811521F085E3BE
:104000000E94E20AF0CF89E2FBCF07378CE718075E
:10401000F1F008378CE7180729F19801205E324546
:104020002032310520F5911122C00F7181E090E01E
:1040300002C0880F991F0A95E2F78C01682F83E070
:1040400090E00E94B534802F0E94DF04D3CA81E043
:10405000911551F00E94E50443E062E081E00E9486
:104060006005C8CA82E0F4CF0E94EE04F5CF40910B
:104070007E0380918403282F20953FEF70E0242356
:1040800037232115310519F0482340937E030B3760
:104090002CE7120741F4911509F4ACCA0E94A90457
:1040A0000E946409A7CA003482E5180708F04DC0D1
:1040B000003282E5180708F04FC0103548F510347B
:1040C00008F05DC0911509F471C00A358CE7180736
:1040D00009F4D2C008F0B6C001308CE7180709F423
:1040E000C9C003308CE7180709F4BEC001158CE77E
:1040F000180709F05BC00E9495108FEF94E32CE045
:10410000815090402040E1F700C000000E94A20CC6
:10411000980130553230B0F6980145E03695279534
:104120004A95E1F7822F8F7020917E0330E041E0C5
:10413000082E01C0440F0A94EAF72423232B11F21E
:104140009111AECF109285034ECF9801205C32457D
:104150002032310508F0B6CF802F8F7120917E0379
:1041600030E041E0082E01C0440F0A94EAF724230E
:10417000232B09F4A7CF911509F43CCA91CFF7017D
:104180008681803108F09ECF911110C0212F2F70B1
:1041900081E090E002C0880F991F2A95E2F72091F4
:1041A0007E0382239323892B09F024CAF701878198
:1041B0009085009709F464C00E943B07182FD92E00
:1041C00086E0F7019E012F5F3F4FD90101900D92CC
:1041D0008A95E1F7F701C580B680B2948FE0B822E6
:1041E00080918903877001F1AC2CC114F1F0892F03
:1041F000807F803461F0812F805E8830A8F0892F25
:10420000807E803221F4123078F0B11469F0809110
:104210000A0482FF09C082E00E9416068091890389
:104220008770AA24A3948111A12C8D2D82958F7063
:10423000882E912C8C3008F052C0F401EE5CFA4CC0
:104240000C9447340B358CE71807C1F00C358CE71C
:10425000180709F0ABCF80910A04002482FF039471
:10426000802D0E94A60EA2CF6FEF7FEF80E090E03E
:104270000E94CF340E94BF1081E0F3CF80E0F1CFE5
:104280008581C080D180811559F0C60134D8182F9E
:10429000682FC6010E94F904B601812F11D88CCF76
:1042A000C6010E942E05182FF7CF0D2D0F708D2DF2
:1042B000803110F00295007FC11409F448C0011547
:1042C00059F0812F805E883010F011113AC0802F94
:1042D0000E9430060E94DD0E812F0E94590F88E057
:1042E000881A910884E08816910418F40E944D0AF7
:1042F000A12C812F9D2D0E94BB04811541F0C1147A
:1043000009F411C2B11409F405C210920D04A114EC
:10431000A1F08091890380FD10C0F7011582869578
:10432000869586950E94E504C70162D8809189032D
:104330008695869586950E94EE0460E0C70122D896
:1043400068C980918803802B80938803C3CF812F15
:104350000E94DD0F011519F2812F805E883010F068
:10436000111104C0802F0E94360606C0009580916E
:1043700088038023809388030E94DD0EB0CF0D2D2B
:104380000F708D2D807F803211F00295007F1130EB
:1043900040F009F472C0C11409F47EC0B114D9F020
:1043A0009BCF80910A0482FD12C0C11449F001150F
:1043B00029F0802F0E9430060E94DD0E80E08DCF14
:1043C00080E00E94DD0F011509F489CFCBCFC11425
:1043D00091F1B11004C0802F0E94310F80CF8B2D3E
:1043E000813089F470908103802F8721081709F4A8
:1043F00076CF0E940D0B80937F0390938003702AE9
:10440000709281036CCF8091FD03823008F467CFF6
:10441000B81265CF802F0E94310F802F0E94780B39
:1044200080918203902F9823091709F458CF802B8D
:104430008093820354CFB11011C0802F0E94400F8F
:10444000802F0E94780B80918203902F982309F48B
:1044500046CF009508230093820341CF8091FD034E
:10446000823008F43CCF8B2D813009F038CF809119
:104470008503802309F433CFE0CF80910304C11476
:1044800021F08B1508F42BCFA6CFB81608F027CF54
:10449000802F0E94400F23CFB114D1F380910104EB
:1044A00090910204193321F08091FF039091000450
:1044B0000E94FA0D812F0E94DD0F11CF8D2D869560
:1044C00086958370813060F009F009CF812F9D2D92
:1044D0009370C11002C080E090E00E94870AFFCE76
:1044E000812F9D2D9370C11002C080E090E00E944A
:1044F000600AF5CE6C2D812F0E94C40BF0CE8D2D5D
:104500008370A1F5C110EBCE812F829586958770BF
:10451000880F880F412F4F70082E01C0440F0A9456
:10452000EAF7212F207114FF06C02FE001C0220FEF
:104530008A95EAF720959D2D9695969593709230E1
:1045400081F0822F842B933031F08091830391305E
:1045500029F0242B82230E94DF04C1CE842B822BDE
:10456000FACF242B809183038227F5CFC11461F108
:10457000D0FEB5CE812F829586958770880F880FE3
:10458000412F4F70082E01C0440F0A94EAF7212FE3
:10459000207114FF06C02FE001C0220F8A95EAF7B0
:1045A00020959D2D9695969593709230A1F0822F2F
:1045B000842B933031F080918403913049F0242B87
:1045C00082230E94E2048BCE823008F488CED2CFC0
:1045D000842B822BF6CF242B809184038227F1CF6A
:1045E0000D2D0F70C11429F0802F0E94E504812F3A
:1045F000F3CE812F0E94400F802F0E94EE046FCED9
:10460000123F81F160F4103FB9F0113F81F0C11405
:1046100009F47BC0B11060CE8D2D8F7127C0133F80
:1046200041F1143FA1F780910A0482FD2EC08D2D27
:104630008F71C11411F31AC080910304C11471F079
:10464000B81608F04CCE2D2D2F7181E001C0880FD7
:104650002A95EAF7909184038927B3CF8B1508F444
:104660003ECEF1CF8D2D8F71C110C7CF0E94E504D2
:1046700036CE80E0C11409F4A4CF81E09D2D9F7156
:1046800001C0880F9A95EAF79CCF8091FD03823094
:1046900048F1C114C9F0909189039770943059F48E
:1046A0001092890310928A0310928B038D2D8F71C3
:1046B0000E94EE041BCE63E0B81608F017CE8D2DD5
:1046C0008F710E94650B12CEB81640F010928903CC
:1046D00010928A0310928B0364E0F1CF81E00E9474
:1046E000160604CEC11431F063E08D2D8F710E9447
:1046F000650BF5CD81E00E9416068B2D823008F403
:10470000EECD82E00E941606EACDB110C7CE8D2D07
:104710008F7173CF80918703809386038091850387
:1047200080938703F4CD40E060E089819A810E9404
:10473000A91900918503B11429F010920D0400937A
:104740008703E5CD20910B0430910C048217930769
:10475000B1F78091FE0382FFF0CF80910D048115A7
:1047600061F3809186030E94310F812F0E941E10F9
:10477000809186030E94400FE0CF03378CE7180733
:1047800011F00C94991A80916B03811509F4FFC8FC
:104790000E94500F0C94FA1A8091DE03803170F45D
:1047A0008091DD03811551F0E0918F0320918E03FC
:1047B0003091D9034091D8032E1301C00895BF0151
:1047C00089E0E89FF0011124DF01A057BC4F149647
:1047D0008C911497811559F111968C91119783132F
:1047E00026C08C91841323C015968C911597811146
:1047F0001EC012968D919D91A091DA03B091DB03BA
:104800008A1B9B0B883C910590F48091DE038F708E
:1048100080618093DE03EA56FC4F80818F70806157
:10482000808388ED93E00E94F8190C940C066F5F6A
:104830007F4FFB01E770C0CFEF92FF920F931F9362
:10484000CF93DF93F82EE92EC0918F0380918E03D2
:10485000C81791F189E0C89FE00111248E0100572B
:104860001C4FF8018581811589F0C8010E94DB1970
:10487000811561F0FE01EA56FC4F80818F708061E6
:104880008083F801808191810E94D410C8010E9428
:10489000F81980918F03909190030196877080930F
:1048A0008F03C057DC4F89818E11CECF88818F1145
:1048B000CBCF8D81811541F2CDB7DEB7E6E00C9408
:1048C0001134EF92FF921F93CF93DF93EC0180910D
:1048D0003C01811541F010E0812FDF91CF911F91B4
:1048E000FF90EF900895EA80FB80E61AF70A84EFC4
:1048F000E81681E0F80678F760E0CE010E94C21960
:104900009C013052303338F70E94DE05811519F3CF
:104910008091090390910A030E94DE05182F8115EA
:10492000D1F28091070490910804853F21E092071D
:1049300010F084EF91E0E816F90668F68E818F702A
:1049400080618E83888199810E94D4100E949D0588
:10495000CE010E94F819C0CFAFE0B0E0E2EBF4E284
:104960000C94EC338C0186E0F801DE011A9601907C
:104970000D928A95E1F7F80170806180C280D38042
:10498000E480F5803091E102E0E0F114A9F128ED36
:10499000A22E23E0B22E8091DC03811157C0E114D6
:1049A000D1F0F11409F443C2C8010E94DB1981154A
:1049B00009F43DC260918C0370918D03C80181DFC1
:1049C000811109C089E0F801A8EDB3E001900D92D2
:1049D0008A95E1F7E1DEFF24F39488C0880F991FE0
:1049E0008F529D4FDC0111962C911197261103C017
:1049F0008C91781649F0EF5F8E2F9E2F990F990BAF
:104A0000831791055CF3C3CFEF3F09F4C0CFD80102
:104A100016968C918F7080618C93E317A0F43150BF
:104A20003093E102E31778F4F0E0EE0FFF1FEF524E
:104A3000FD4FA32FB0E0AA0FBB1FAF52BD4F8D910A
:104A40009D91808391830E949D05A1CF60E088EDB8
:104A500093E00E94C2195090DD032091DA03309157
:104A6000DB034601821A930A511409F42BC228EC85
:104A70008216910408F0DFC1E11409F4ACCF309143
:104A8000D903F8012181E090DE034E2D403108F07A
:104A9000B0C132134CC03091D8032081321347C0CB
:104AA000F11045C08E2D8F7080618093DE0388EDFC
:104AB00093E00E94F8198091DE03F8018683C0908C
:104AC000DA03F090DB0300918F0380918E030817C7
:104AD00051F089E0089F8001112400571C4FF80114
:104AE0008581811108C00E940C06F12C8F2D2F9614
:104AF000EFE00C940834D280E380C8010E94DB19F7
:104B000081110EC0C8010E94F81980918F03909105
:104B100090030196877080938F03CD2CFE2CD3CF0A
:104B20006C2D7F2DC801CDDE8111EFCFDCCF9052EF
:104B3000903308F07BC0F110F8C040E0662D872D5F
:104B40000E947E05811147C040E0662D872D0E949E
:104B50007E05F82E811509F419C18091FE0380FFAE
:104B6000C4CF88ED93E00E94F81960E088ED93E0EF
:104B70000E94C2198C0170908F03C72C88E0D82E38
:104B800098ED892E93E0992E80918E03C81689F0B6
:104B9000560129E0C29EC001112480579C4F7C0120
:104BA00060E00E94C219582E692EF701858181119B
:104BB0008EC08D2D883008F4B5C08A859B853CDE7B
:104BC0000E949D050E940C06E8EDF3E089E0119239
:104BD0008A95E9F78ACF60E0C8010E94C2198091E6
:104BE000FE0383FFB1CFB80188ED93E00E94AA05D0
:104BF0008111AACF8091DE038F7080618093DE03E4
:104C00008091D8039091D9030E94D41088ED93E04D
:104C10000E94F819E8EDF3E089E011928A95E9F72E
:104C20008A859B8509DE0E949D055DCFF11409F4FC
:104C30008BCF8091DE0381608093DE038091FE0341
:104C400081FF53CF88ED93E00E94F81900918F0304
:104C500080918E03081709F4C5C029E0029FC001A6
:104C6000112480579C4F7C010E94DB19811509F4A7
:104C7000B9C089E0F701A8EDB3E001900D928A95E3
:104C8000E1F7C80101968770082F80938F030E9477
:104C90000C0680918E03081709F425CF89E0089F40
:104CA0008001112400571C4FC8010E94DB1981119B
:104CB0001ACFC8010E94F81920918F0330919003F8
:104CC0002F5F3F4F2770022F20938F03E2CF1052A8
:104CD000103308F06ECF8091FE0383FD0AC0DC2CF8
:104CE00095012395822F8770C82E052D162D47011B
:104CF0004BCFB701C4010E94AA05811589F3EFCFFC
:104D000029E0729EC001112480579C4F0E94F8191F
:104D100020918F03309190032F5F3F4F2770722EA9
:104D200020938F03D710ECCF48CF8091DE038160B2
:104D30008093DE0360E0C8010E94C2198091FE03E7
:104D400083FF7CCFB80188ED93E00E94AA05811112
:104D500075CF8091DE038E7FF82E8093DE03C8012D
:104D60000E94DB198111C1CE8F2D8F7080618093DD
:104D7000DE038091D8039091D9030E94D4100E9441
:104D80009D0588ED93E00E94F8191ECF8A859B85CA
:104D90000E94D019292F22952F70903450F49F70C3
:104DA000223080F0911599F0F8019681903178F4D5
:104DB0009DCE2A5F2F70223078F0C8010E94F8192A
:104DC000F52C94CE911519F0811509F48FCE805EE3
:104DD000883008F48BCEF1CF803F08F487CE815F16
:104DE0008330F7CFE8EDF3E089E011928A95E9F797
:104DF00050CF321314C09091D803808198130FC004
:104E0000F1100DC0E682C8010E94F81989E0F8018E
:104E1000A8EDB3E001900D928A95E1F7DCCDC801D1
:104E20000E94DB19811519F08E2DF11031C0C801D7
:104E30000E94F819D0CD9090DE03892D803130F496
:104E400088ED93E00E94F819F501C0CEE11409F451
:104E5000C2CD9091D903F8018181981311C090912E
:104E6000D803808198130CC0F1100AC09682C80143
:104E70000E94F819F50189E011928A95E9F7ABCD06
:104E8000C8010E94DB19811591F2F11481F2892D7C
:104E9000803208F497CD1E821F8218861986809171
:104EA000D8039091D90389839A83CB82DC82809145
:104EB000DC038D838091DE038F83CE0101960E94F7
:104EC000F81980CD88EC8816910408F0BDCFE11464
:104ED00009F481CDF11409F4AACF9091D903F80116
:104EE0008181981327C09091D8038081981322C0A4
:104EF00060E088ED93E00E94C219809105049091D2
:104F000006048816990608F081CF9091DE0390FD83
:104F10007DCF903108F47ACF892FF8019683907F66
:104F2000903F09F470CF982F907F905F8F70892BFE
:104F3000868369CFC8010E94DB19811561F06091F9
:104F40008C0370918D03C801BCDC811509F43ACD46
:104F5000E8EDF3E090CF8091DE0381608093DE0383
:104F600066CFA1E2B0E0E7EBF7E20C94F7334C8FA9
:104F70005D8F6E8F7F8F082F88A3192F99A38115BE
:104F800009F4BAC040E0692F8C8D9D8D0E94A9194B
:104F9000111549F010920D0480930B0490930C04AA
:104FA000109288030AC020910B0430910C0428173A
:104FB000390719F481E080930D04198E1A8E1B8E27
:104FC00086E0FE017C96DE01539601900D928A9553
:104FD000E1F780910A0482FF21C08091E303909160
:104FE000E403892BD9F00E940D0B20918A033091A4
:104FF0008B03821B930B2091E3033091E403821710
:10500000930738F08091890382FD03C082E00E94FB
:1050100016060E94190B81110E943E06011561F0CF
:105020000F8B188F61E0CE0143960E94C21961E098
:10503000CE0143960E94C2190F8B188F89E0FE01A2
:105040007396DE011A9601900D928A95E1F7CE01D2
:105050000A9682DC811128C020918E0330918F0343
:1050600089E0AE01465F5F4FFA0149505109DA010C
:1050700001900D928A95E1F78E858115A9F0822F16
:1050800090E08395877090E0AC0134171506C1F568
:105090000E94951010928E0310928F03E8EDF3E0BA
:1050A00089E011928A95E9F780918F0390918E03A0
:1050B000891749F029E0829FC001112480579C4F35
:1050C0004BDC811130C08E85811112C080913C0172
:1050D00081110EC08C859D8520918C0330918D03AC
:1050E000821B930B8F3F9F4318F081E080933C011C
:1050F000A196E4E00C941334911509F45ECF50CFDF
:1051000099E0929FD0011124A057BC4F9E012F5FC0
:105110003F4FF90101900D929A95E1F740938E036C
:105120000E940C06C1CF80918F039091900301964D
:10513000877080938F03B8CFA6E0B0E0E2EAF8E290
:105140000C94F7330E940D0B8C018091A502909175
:10515000A6028017910771F019821A820E940D0B26
:10516000BC0149815A8180E090E0FBDE0093A502FA
:105170001093A6022696E4E00C941334A6E0B0E067
:10518000E4ECF8E20C94F9338093A1029093A2022C
:10519000903230F40E94BB0F2696E2E00C94153456
:1051A00080EF89838A830E940D0B8160BC01498155
:1051B0005A8181E091E0D5DEEFCFA6E0B0E0E3EEEA
:1051C000F8E20C94F9338093A1029093A2029032FA
:1051D00030F40E9409102696E2E00C94153480EF1A
:1051E00089838A830E940D0B8160BC0149815A81A9
:1051F00081E090E0B6DEEFCF85E290E00E94993446
:105200008E3969F486E290E00E9499348D3239F447
:1052100087E290E00E94993491E0853209F090E0B5
:10522000892F81700895A6E0B0E0E9E1F9E20C94DD
:10523000F53305E113E081EDE82E82E0F82E46E03B
:1052400050E0B701CE0101960E948934F80188E050
:1052500011928A95E9F7B8016C5F7F4F89819A8135
:105260000E945808F80180839183B8016B5F7F4FDB
:105270008B819C810E945808F801828393838D81E1
:1052800086838E81878386E0E80EF11C085F1F4FBE
:1052900081E0E81683E0F80691F62696E6E00C94A5
:1052A0001134A6E0B0E0E7E5F9E20C94EE33A0900B
:1052B0005702B090580281E0809357021092580232
:1052C000812C912C10E0640100E01AC021E030E054
:1052D000133021F0F701859194919C01472D602FA7
:1052E000812F0E94B80E739482E0E80EF11C872D86
:1052F000883061F70F5F88E0C80ED11C0A3041F09A
:10530000C601880F991F875D9C4F7C01712CDECFF1
:105310001F5F80E5880E911C1430A9F60E94CD18FD
:10532000FE013196DF0186E01D928A95E9F781ED55
:10533000E82E82E0F82E1E2F0F2F46E050E0B70136
:10534000812F902F0E94D33486E0E80EF11C81E07B
:10535000E81683E0F80689F7A0925702B092580247
:105360002696EDE00C940A34A0E1B0E0EAEBF9E215
:105370000C94EB33FE013196DF0180E11D928A959A
:10538000E9F700E110E091E0A92E93E0B92E612C3D
:10539000712C23014A949E2E8F2E6201730181E1AC
:1053A00048165104610471041CF080E1C82ED12C10
:1053B000A601B501892D982D0E94A634AC0CBD1C08
:1053C0000D2C000C00084C185D0860087008015096
:1053D000104019F76096E0E10C9407346FEF85E216
:1053E00090E00E94B5346FEF86E290E00E94B53401
:1053F0006FEF87E290E00E94B53460E088E290E0D1
:105400000E94B5344EDFB0DF6EE985E290E00E9485
:10541000B5346DE286E290E00E94B53465E287E241
:1054200090E00C94B534CDB7DEB7AA970FB6F894D8
:10543000DEBF0FBECDBF85B7806885BF85B78068EA
:1054400085BF84B7877F84BF0FB6F894A8958091F5
:105450006000886180936000109260000FBE80E859
:1054600090E00FB6F89480936100909361000FBEB6
:1054700081E080933A0187E298E08093DA0190938B
:10548000DB01D1DE0E94A7180E94DC0D0E948D0D69
:105490008091E20084608093E200789480915902C8
:1054A000811599F08091E9001091EC008F7010FB4C
:1054B000112717F9182B1092E9008091E80083FD5D
:1054C0000E9408111F701093E90082E084BD93E0F0
:1054D00095BD9AEF97BD80936E0010929D02109239
:1054E0009E0210929F021092A00286DE811101C0DE
:1054F00075DF8091D80080618093D8008AE18A9519
:10550000F1F700C08091D900182F117080FD04C000
:105510000E94DC0D1092590210939B0225982D9A3F
:10552000869A8E9885E08A95F1F7000083B1869877
:105530008E9A90EA9A95F1F785FB882780F98093F7
:105540009C028093040180919B028111F3D780918A
:1055500004018091040190E0811101C095E09093D5
:10556000860285E0891B8093820207E511E0F8013D
:1055700081918F018F3F11F00E94340881E00C353A
:105580001807A9F76CE5E62E61E0F62E04E611E0B7
:10559000F70181917F018F3F11F00E9434080E15B1
:1055A0001F05B1F7E1E9F2E08AE011928A95E9F787
:1055B000E7E8F2E08AE011928A95E9F780E090E06E
:1055C0000E94A134833E9E4F19F416DE811129C03A
:1055D00063EE7EEF80E090E00E94CF3460E082E0F6
:1055E00090E00E94B53481E08093830361E083E022
:1055F00090E00E94B534198284E18A83CE0101963D
:105600000E949F0EEBDE60E070E0AB018FE090E067
:105610000E94C73460E070E0AB0183E190E00E943B
:10562000C73482E090E00E9499348093430284E082
:1056300090E00E94A1348093090490930A040E9490
:1056400070148FEF96E721E0815090402040E1F701
:1056500000C000000E94701480919C02811569F0C6
:1056600084E00E94290880FF0AC06FEF7FEF80E08E
:1056700090E00E94CF340E94A20C89E0F2CF83E038
:1056800090E00E9499340E94DF0480919B02811176
:1056900001C053D785E091E08093C7029093C80280
:1056A00010E47E018FEFE81AF80A809159028530E4
:1056B00049F480915902853009F450C00E94951038
:1056C0000E944D0A0E94701454E4C52E52E0D52E5B
:1056D000560100E0F5019080802F0E9429080F5F9D
:1056E0000A3009F46EC09FEFA91AB90A981691F30F
:1056F00070909B0200E0802F0E942908B82EF601CE
:1057000081906F01881521F18826A12C992493940A
:10571000882D8921B1F07114A1F0A9820A830E9419
:105720000D0B8B839C8381E08D8391E08B2D8921F0
:1057300009F490E09E8349815A816B817C818D813F
:1057400010DCA394990C8A2D883011F7F601B292DF
:105750000F5F0A3081F60E94870C36C08091590293
:10576000843019F11092410288E190E00FB6F8946C
:10577000A895809360000FBE1093600083B7817F6F
:10578000846083BF83B7816083BF7894889583B733
:105790008E7F83BF0FB6F894A895809160008861D2
:1057A00080936000109260000FBE0E94701400E0B1
:1057B000802F0E9429088111A8C40F5F0A30C1F709
:1057C00078CF981295CFB8DC80919B02811589F132
:1057D0008091FC0380FF1CC080913B0182FF18C0B8
:1057E0000E940D0B20916F0330917003AC01421B9E
:1057F000530B20911101309112014217530740F0D1
:1058000041E0BC0180917103909172030E94EB13FF
:1058100080916B03811569F00E940D0B20916C0340
:1058200030916D03821B930B8F3F9F4710F40E94B2
:10583000500F86E0E3E0F3E0D70101900D928A95E6
:10584000E1F780900403A0900503B09006039090C8
:1058500007030091080310920503109206031092AB
:105860000703109208038B2D8A29A1F0C0905002E3
:10587000D09051020E940D0B8C199D099C019091B2
:105880000103911509F48CC080911601821713064B
:1058900008F494C0802F8929A1F0C0904E02D090C6
:1058A0004F020E940D0B8C199D099C0190910003E1
:1058B000911509F4B3C0809114018217130608F4FE
:1058C000BBC080910403881119C080910503811524
:1058D00011F08A1113C020910603211511F02B112C
:1058E0000DC090910803911511F0901307C03091ED
:1058F0000703311103C0822B892B11F00E949C0BEE
:1059000086E0F701A3E0B3E001900D928A95E1F7FC
:105910000E944D0A90915202891721F08093520201
:105920000E947B0C80915902843009F0BECE83E046
:105930008093E9008091E80082FFB7CE8091E80073
:1059400090E085FF0AC00E945C0D40E2A42EB12CBD
:105950006701811509F4ACC091E08091E8008B7774
:105960008093E800911509F4A0CEC090A302D090D6
:10597000A402E981C114D10409F4A8C0EE3F09F0E2
:10598000CFC08A81833020F08550833008F0C8C0B2
:10599000EA81EE3008F0C4C0F0E0E25CFA4C77C770
:1059A000409115018AE0489FA00111244217530736
:1059B00008F070CF9F5F9093010302C09F3FD1F723
:1059C000A11459F00E94970991E01A140CF09FEF6E
:1059D000899F802D112480930503B11459F00E94F2
:1059E000970991E01B140CF09FEF899F802D1124E3
:1059F0008093060380910503811509F44BCFD09065
:105A00000603D11409F446CF0E9489098093050347
:105A10008D2D0E948909809306033CCF409113018C
:105A20008AE0489FA00111244217530708F049CF8C
:105A30009F5F9093000302C09F3FD1F7911459F0EC
:105A40000E94EF0991E019140CF09FEF899F802DBF
:105A5000112480930703011559F00E94EF0991E08A
:105A600010160CF09FEF899F802D1124809308035E
:105A700080910703811509F424CFD0900803D11435
:105A800009F41FCF0E948909809307038D2D0E947E
:105A900089098093080315CF8091F100F601808376
:105AA00081E0A81AB10809F457CF8FEFC81AD80AB5
:105AB0008091E80085FDF0CF8091E8008B7780939E
:105AC000E8000E945C0D811599F346CFE43148F45B
:105AD000E11551F0E150E33138F4F0E0E45BFA4CC9
